:100000000C94D5060C9419070C9419070C94190735
:100010000C9419070C9419070C9419070C941907E0
:100020000C9419070C9419070C94392B0C940B2C75
:100030000C9441200C9419070C9419070C9419077F
:100040000C9419070C9419070C9419070C941907B0
:100050000C9419070C94A8200C9419070C941907F8
:100060000C9419070C9419070C9419070C94190790
:100070000C9419070C9419070C9419070C94190780
:100080000C9419070C9419070C9419070C94190770
:100090000C9419070C9419070C9419070C94190760
:1000A0000C9419070C9419070C941907D907DF074A
:1000B000E307E607EA07EE07F207F607FB07FF0785
:1000C000030807080A080E08120816081A081F086D
:1000D000B516B516EF16EF162E175017BF18BF1826
:1000E0009617BF183D183D18B318BF18BF18BA1897
:1000F0004A184A184A184A184A184A184A184A18F0
:100100004A184A184A184A184A184A184A184A18DF
:100110005C186C1873187A188418531953196619D7
:1001200066195C196619661966195319531962190B
:10013000661966196219702C972C852D972C852DC0
:10014000DF2C022D852D582D672D07634236B79B76
:10015000D8A71A39685618AEBAAB558C1D3CB7CC27
:100160005763BD6DEDFD753EF6177231BF0000009F
:10017000803F05A84CCDB2D44EB93836A9020C50F8
:10018000B9918688083CA6AAAA2ABE000000803F32
:10019000013029001E001F0020002100220009510B
:1001A000230024002500260027002E002A0002300C
:1001B0002B0014001A000800150017000A511C003B
:1001C00018000C00120013002E024C0003303900FE
:1001D00004001600070009000A000B510B000D0077
:1001E0000E000F0033002D0028000430E1001D0038
:1001F0001B000600190005000C51110010002C0016
:10020000520033023100E5000530E000E300E20077
:1002100076002C002C000F532C002C0050005100B5
:100220004F00E600E40001000100010001000100B0
:1002300001000100010001000100010001000100B6
:1002400001000100010001000100010001000100A6
:100250000100010001000100010001000100010096
:100260000100010001000100010001000100010086
:100AF0006801F000B40078005A007F3F1F64321490
:100B0000643214783C1E1E140A0500000000000127
:100B100001010101010101010202020202020202BD
:100B2000020303030303030303040404040404058E
:100B3000050505050606060606070707070808084F
:100B4000080909090A0A0A0A0B0B0B0C0C0C0D0DFB
:100B50000D0E0E0F0F0F101011111112121313148E
:100B600014151516161717181819191A1A1B1C1C04
:100B70001D1D1E1F1F20202122222324252526275C
:100B80002728292A2B2B2C2D2E2F2F30313233348E
:100B90003536363738393A3B3C3D3E3F404142439B
:100BA00044464748494A4B4C4D4F50515253555675
:100BB00057585A5B5C5E5F606263646667696A6C23
:100BC0006D6E707173747678797B7C7E808183849E
:100BD00086888A8B8D8F91929496989A9B9D9FA1DF
:100BE000A3A5A7A9ABADAFB1B3B5B7B9BBBDBFC1E5
:100BF000C4C6C8CACCCFD1D3D6D8DADCDFE1E4E6AC
:100C0000E8EBEDF0F2F5F7FAFCFF0403300000002A
:100C10000A03580044003700350000000C03780038
:100C200069007500640069000000040309040902FA
:100C30006D00040100A0FA09040000010301010095
:100C40000921110100012240000705810308000A63
:100C50000904010001030102000921110100012220
:100C60004D000705820308000A0904020001030081
:100C70000000092111010001223600070583030845
:100C8000000A09040300010300000009211101000A
:100C90000122390007058403200001120110010020
:100CA000000008CDCD7575010001020301050109A1
:100CB00006A101050719E029E7150025019508752A
:100CC0000181020508190129059505750191029513
:100CD00001750391010507190029F71500250195F4
:100CE000F875018102C005010980A1018502160184
:100CF000002603001A81002A8300751095018100E7
:100D0000C0050C0901A1018503160100269C021AE9
:100D100001002A9C02751095018100C0050109029D
:100D2000A1010901A10005091901290515002501E5
:100D30009505750181029501750381010501093051
:100D400009311581257F95027508810609381581BD
:100D5000257F950175088106050C0A380215812545
:100D60007F950175088106C0C005010906A101052E
:100D70000719E029E71500250195087501810295FD
:100D8000017508810105081901290595057501916D
:100D9000029501750391010507190029FF15002629
:100DA000FF00950675088100C00011241FBECFEF1B
:100DB000DAE0DEBFCDBF04B603FE24C0809160023E
:100DC00090916102A0916202B09163028730904BD2
:100DD000A740B04BB9F410926002109261021092D9
:100DE00062021092630214BE84B7877F84BF88E1D9
:100DF0000FB6F89480936000109260000FBEE0E0A0
:100E0000F8E3099511E0A0E0B1E0E2E8F2E602C003
:100E100005900D92A834B107D9F712E0A8E4B1E02B
:100E200001C01D92A036B107E1F70E9463280C941F
:100E30003F310C9400000C9443070C9444070C942D
:100E400046072A9A0895229A0C9421078F9A0895AA
:100E5000879A0C9426078C980895849A0C942B07F3
:100E60008D9A0895859A0C9430070E9423070E945A
:100E700028070E942D070E9432070C94420780E049
:100E800090E008950895089581E00895089581E01F
:100E900008950E9441192FEF84E39CE02150804087
:100EA0009040E1F700C000000C94CE200F931F93F8
:100EB000CF93DF938C01FC01C081D181CE010E94D0
:100EC0003F1EBE010E94080AEC01B8010E941D07E6
:100ED000882309F490C2B801CE010E94690C8823CE
:100EE00009F489C2C23CFCE5DF0741F4F8018281C4
:100EF000882309F480C20E9409107DC2C33C8CE59E
:100F0000D80708F038C1CB3B9CE5D90761F4F8015C
:100F10008281882309F46FC20E94F21E8272E1F07E
:100F20000E94AA1068C2CC3BECE5DE07C0F0CE3BC5
:100F30009CE5D90709F4F0C008F002C1CC3BFCE500
:100F4000DF0709F0F1C0F8018281882309F453C258
:100F50000E94F21E827221F30E94A0104CC2C53181
:100F6000FCE5DF0708F0A3C0C2308CE5D80708F421
:100F700078C0F8018281882309F47FC00E944C1F49
:100F8000811102C00E942B1F0E94691F90E0909364
:100F9000520280935102FE01E350FC45E231F1051B
:100FA00020F4EA5AFF4F0C94F13080915102816095
:100FB00003C0809151028260809351024BC08091A6
:100FC00051028460F9CF8091510213C08091510287
:100FD0008061F2CF809151028062EECF8091510208
:100FE0008064EACF809151028068E6CF80915102FF
:100FF00084608860E1CF809151028E7FDDCF809147
:1010000051028D7FD9CF809151028B7FD5CF8091B6
:10101000510213C0809151028F7ECECF8091510238
:101020008F7DCACF809151028F7BC6CF80915102B4
:101030008F77C2CF809151028B7F877FBDCF9091F8
:10104000510297FB882780F921E0822780FB97F9DE
:1010500090935102809151020E946D1F0E9441198C
:10106000CAC1C1159CE5D90779F0C130DC45A1F0B2
:1010700081E080934D0180934E01C801DF91CF91B3
:101080001F910F910C944707F8018281882309F47E
:10109000B2C10E944907AFC1F8018281882309F4D7
:1010A000AAC180910102816080930102A4C1C5316F
:1010B000FCE5DF0729F50E94F21E382FF801228196
:1010C0008091020190910301222371F03A7A21E08C
:1010D00009F420E020934801222311F065E301C0C8
:1010E00069E20E94D91F09C020914801222311F012
:1010F00065E301C069E20E94E41F0E94BF1E7BC13C
:10110000CA3BDC4509F0B4CFF8018281882309F499
:1011100072C10E94E7106FC1F8018281882309F42F
:101120006AC10E949A0F67C1CD3BDC4509F0A0CF90
:10113000F8018281882309F45EC10E94810F5BC19E
:10114000F8018281C03CFCE5DF0731F4882309F413
:1011500052C10E94D40F4FC1C13CDC4530F48823FA
:1011600009F449C10E94B90F46C1882309F443C15B
:101170000E94EE0F40C1C93CECE5DE0749F4F801DE
:101180008281882309F437C188E10E94231033C18A
:10119000CA3CFCE5DF0708F088C0C53C8CE5D807F1
:1011A000B1F4F8018281882309F425C10E944F0E11
:1011B000663071058105910540F00E944F0E683040
:1011C00071058105910508F4C7CE86E0DECFC63CE7
:1011D0009CE5D90728F5C33CECE5DE0739F4F801B6
:1011E0008281882309F407C181E0CFCFC43CDC456C
:1011F00009F03ECFF8018281882309F4FCC00E94E7
:101200004F0E623071058105910540F00E944F0E2E
:10121000653071058105910508F49ECE82E0B5CF59
:10122000F8018281C73CFCE5DF07A1F4882309F4BB
:10123000E2C00E944F0E6F3071058105910540F0AC
:101240000E944F0E643171058105910508F484CE2A
:101250008FE09BCFC83CDC45A0F4882309F4CBC0C9
:101260000E944F0E693071058105910540F00E9482
:101270004F0E6E3071058105910508F46DCE89E041
:1012800084CF882309F4B7C00E944F0E65317105E1
:101290008105910540F00E944F0E6731710581056F
:1012A000910508F459CE85E170CFCC3CECE5DE0722
:1012B00039F5F8018281882361F010924E010E9475
:1012C000732090934C0180934B0180E20E9465163D
:1012D00092C080914E0181110FC080914B0190917D
:1012E0004C010E947F20883C910530F487E20E94E7
:1012F000F51487E20E94041680E20E946C167BC0FF
:10130000CD3CFCE5DF0708F041C0CA3C8CE5D807BE
:10131000B1F4F8018281882309F46DC00E944F0E58
:10132000693171058105910540F00E944F0E6232CE
:1013300071058105910508F40FCE89E126CFCB3CDC
:10134000DC4509F095CEF8018281882351F0109296
:101350004D010E94732090934A018093490182E0DD
:10136000B5CF80914D0181110FC0809149019091BD
:101370004A010E947F20883C910530F486E20E9459
:10138000F51486E20E94041682E0B7CFC03DECE57A
:10139000DE0731F4F8018281882369F180E009C019
:1013A000C13DFCE5DF0741F4F8018281882319F192
:1013B00082E00E94FF281FC0CD3CDC4509F058CEDA
:1013C000F8018281811179CF80914E01811194CFF2
:1013D00080914B0190914C010E947F20883C9105A7
:1013E00008F08ACF80E20E946C1688E20E94F51411
:1013F00088E20E94041680E0DF91CF911F910F9147
:1014000008950C9435070C941B070C941F0708953E
:101410009FE0799FF00111249BE4899FE00DF11D6D
:101420001124E60FF11DEE0FFF1FE057FE4F8591CF
:1014300094910895880F991F8051954FFC018591D3
:1014400094910895CF93DF930E94080A0E94C90BDC
:10145000EC01811520E5920708F040C0811530E4C9
:10146000930708F01BC1883E910508F5803E910561
:1014700008F08BC1883A910578F4853A910508F017
:101480009DC08130910509F480C108F437C18430D2
:10149000910508F07AC132C18D3B910508F499C0DD
:1014A000803C910508F42AC1805C9109E9C0C1150E
:1014B00080E2D80758F4C11591E0D90708F065C15A
:1014C000C03FD10508F41AC1D0655FC1C11520E342
:1014D000D20708F0D9C0CE019F70D2C0811535E582
:1014E000930708F043C0C11584E5D80708F0EDC0A4
:1014F000C11592E5D90708F5C11521E5D20708F015
:10150000D0C02C2F237081E090E002C0880F991F7B
:101510002A95E2F79C689E01E4E036952795EA95C6
:10152000E1F72370922BCF70C695C69530E2C39F2A
:10153000E0011124C82BD92B28C18C2F86958695C4
:101540009E0123703327C115D34508F0AFC090E248
:10155000899FE001112481E090E002C0880F991F6B
:101560002A95E2F7C82BD92BDC680FC1811529E534
:10157000920780F4811538E5930708F0ABC0C115D8
:1015800086E5D80708F0BAC0CF71DD27DC2FCC275D
:10159000D062FBC0C1159AE5D90708F4A0C0CE01FE
:1015A00090568115904208F0A9C08D2F8F710E942E
:1015B000450CDD27D0628F71D82BE7C0853A9105A5
:1015C00009F49FC0863A910509F49EC0C3E8D0E4AF
:1015D000DCC0883A910509F49AC0893A910509F46A
:1015E00099C08A3A910509F498C08B3A910509F49B
:1015F00097C08C3A910509F496C08B3B910509F48C
:1016000095C08C3B910509F494C08D3A910509F47D
:1016100093C0803B910509F492C08E3A910509F47C
:1016200091C08F3A910509F490C0813B910509F46E
:101630008FC0823B910509F48EC0833B910509F46C
:101640008DC0843B910509F48CC0853B910509F45C
:101650008BC0863B910509F48AC0873B910509F44C
:1016600089C0883B910509F488C0893B910509F43C
:1016700087C08A3B910509F086C0CAE2D6E485C0DE
:101680000E941A0AEC0181C0CE019927D3FF03C042
:10169000EC01D86C7AC0EC01D06C77C0DF70D06AF6
:1016A00074C0DC2FCC27C16FD06A6FC090E2899FD5
:1016B000E001112481E090E002C0880F991F2A9573
:1016C000E2F7C82BD92BDA6860C0DC2FCC27C46FB7
:1016D000D06A5BC0D82FCC27C06FD06A56C08C2F81
:1016E0008F70806E90E0906A34E0D695C7953A95F9
:1016F000E1F7CF709C013C2BE90147C0C0E0D0E08E
:1017000044C0C1E8D0E441C0C2E8D0E43EC0C2EE6B
:10171000D4E43BC0C9EED4E438C0CAEED4E435C04A
:10172000C5EBD4E432C0C6EBD4E42FC0C3EBD4E4A1
:101730002CC0C4EBD4E429C0C7EBD4E426C0CCEC65
:10174000D4E423C0CDECD4E420C0C3E8D5E41DC06C
:10175000CAE8D5E41AC0C2E9D5E417C0C4E9D5E4A3
:1017600014C0C1E2D6E411C0C3E2D6E40EC0C4E2A4
:10177000D6E40BC0C5E2D6E408C0C6E2D6E405C094
:10178000C7E2D6E402C0C0E0D4E4CE01DF91CF913D
:1017900008958238910549F1B0F48133910509F437
:1017A00059C048F48932910509F44FC08A32910535
:1017B00009F455C008958533910509F441C0893372
:1017C000910599F00895833E910531F138F4803EFA
:1017D000910591F0823E9105A9F00895863E91050C
:1017E00001F1873E910539F108952091510220FDC4
:1017F0003BC021FD39C008958091510280FF34C063
:1018000089E341C08091510282FF32C08091510230
:1018100084FF2CC080E037C08091510282FD28C037
:10182000F5CF8091510283FF25C08091510284FD44
:10183000F1CF87EE28C08091510283FD1BC0F5CF08
:101840008091510285FF18C019C08091510285FF17
:1018500015C012C08091510286FF12C013C0809142
:10186000510286FF0FC00CC080EE0DC083EE0BC08E
:1018700082EE09C086EE07C085E305C089E203C099
:1018800081E301C08AE290E008959091510292FFB5
:101890000DC0282F2871283019F4877F846006C076
:1018A000282F2471243011F48B7F886093FF0DC0A2
:1018B000282F2871283119F4877E846106C0282FCB
:1018C0002471243111F48B7E886194FD877E089504
:1018D0000895CF93DF93EC01FB018281811102C057
:1018E00081E040C080915C01811125C0C631DC459A
:1018F000B9F70E94680C81E080935C010E9473201C
:1019000090935B0180935A0110924F011092510104
:1019100010925001109253011092520110925501F1
:1019200010925401109257011092560110925901D1
:101930001092580116C080915A0190915B010E944B
:101940007F20883C910560F680914F01E82FF0E000
:10195000EE0FFF1FE05BFE4FD183C0838F5F80934C
:101960004F0180E0DF91CF91089585B7806885BFF2
:1019700085B7806885BFA4E2B1E021E030E08D91B9
:10198000E82FE295EF70F0E041A18F70B90102C03D
:10199000660F771F8A95E2F7CB01962F9095492322
:1019A00041A392A1982B92A371E0A932B70739F70E
:1019B000A5E1B1E021E030E08D91E82FE295EF70F4
:1019C000F0E041A18F70B90102C0660F771F8A95C0
:1019D000E2F7CB01962F9095492341A392A1982B32
:1019E00092A371E0A432B70739F7E7E6F1E0ADE57D
:1019F000B1E0119211921D921D9281E0E137F8073A
:101A0000C1F70C94010A4F925F927F928F929F923E
:101A1000AF92BF92CF92DF92EF92FF920F931F93FC
:101A2000CF93DF9304E211E0CDE5D1E0EE24E3941F
:101A3000F12C99249394BE01A880B9801982188250
:101A4000D8012D918D01E22FE295EF70F0E081A198
:101A50002F70A70102C0440F551F2A95E2F79A0183
:101A6000842B81A382A1842E8094882182A350EAB2
:101A70005A95F1F745E1442E41E0542E80E090E084
:101A8000D2014D912D01C42EC2943FE0C322D12C2E
:101A9000D60190967C90C880D9804F70D70102C043
:101AA000AA0FBB1F4A95E2F77A2241F4A701082E3C
:101AB00002C0440F551F0A94E2F702C040E050E014
:101AC0004C295D295983488301968F309105C1F6D1
:101AD00081A1882181A382A1822B82A32296FB016E
:101AE00080819181A816B90641F0909271010E94FF
:101AF00073209093730180937201F1E009321F0704
:101B000009F099CF809171018823B1F08091720121
:101B1000909173010E947F20069770F0EDE5F1E04F
:101B2000A7E6B1E0819191918D939D9341E0E736D5
:101B3000F407C1F7109271010E94030A81E0DF915E
:101B4000CF911F910F91FF90EF90DF90CF90BF90BA
:101B5000AF909F908F907F905F904F900895E82F67
:101B6000F0E0EE0FFF1FE959FE4F8081918108954B
:101B70000895DF92EF92FF920F931F93CF93DF931D
:101B8000662309F44AC0E42FF0E0AFEFB0E0A61BF3
:101B9000B109BF01A69FE001A79FD00DB69FD00D50
:101BA0001124FD2FDD2E7B01ED1AF1080CE310E06E
:101BB000B8010E94C930EB01BC01E69EC001E79E5E
:101BC000900DF69E900D1124B8010E94C930C230CC
:101BD000D105B1F040F4209779F0219709F58F2FC6
:101BE000D42E461B20C0C430D10599F068F025974B
:101BF000B9F4842F861B17C08F2FD62EDF0E13C08B
:101C0000862F8F0FD42E03C0D42ED61A842F4F2F99
:101C10000AC0842F462F4F0F06C0842FD42E03C036
:101C200080E0D12C40E0E42FF0E0E65FF44F4491F7
:101C3000ED2DF0E0E65FF44F9491E82FF0E0E65FE1
:101C4000F44FE491D90111964C9311979C931296FD
:101C5000EC93DF91CF911F910F91FF90EF90DF9068
:101C6000089588E090E00C94FF30AB01BC0188E05F
:101C700090E00C941D3183E0809331021092320287
:101C80008FEF809333028093340260913102709120
:101C9000320280913302909134020C94350E60919F
:101CA000310260FF06C066956F7370E080E090E0DF
:101CB000089560E070E0CB0108958091310280FFCB
:101CC00006C066E070E089E392E00C94A013EBE3B9
:101CD000F2E0DF0111971C92DF0112971C92108233
:101CE000339682E0ED34F807A1F7EBCF9091310203
:101CF00090FF10C0EBE3F2E0DF0111978C93DF015E
:101D000012976C934083339692E0ED34F907A1F774
:101D10000C945D0E0895CF92DF92EF92FF920F9395
:101D20001F93CF93DF9300D01F92CDB7DEB7F82E6D
:101D3000C92ED62EE42E009131021091320220914C
:101D4000330230913402009335021093360220930F
:101D50003702309338028091310280FF1EC09E010D
:101D60002F5F3F4F8F2D0E94B90D80913502F0FA01
:101D700087F980933502F6942091360220782F2936
:101D8000C0FA27F920933602D0923702E092380247
:101D90004B8169818A810E94760E0F900F900F907F
:101DA000DF91CF911F910F91FF90EF90DF90CF9037
:101DB00008958F929F92AF92BF92CF92DF92EF924F
:101DC000FF920F931F93CF93DF93EC01862E942EF7
:101DD0008091310280FF88C0982F9E77923021F445
:101DE000CE010E948B0E56C0E82FE695EF739EE35E
:101DF0009E0F9F73943018F4909034024BC09AE376
:101E00009E0F9F73993070F4881F8827881F9091C8
:101E10003202292F220FC22FC82B97FB992790F946
:101E2000D92F38C087E28E0F8F738A3098F5F0E093
:101E30007997E0FF02C02FEF01C021E0EE7FE05173
:101E4000F54F8591949166E070E00E94C9302603B9
:101E50006001279FD00C11247E0188E9E81A8EEFDB
:101E6000F80A09E312E088E6A82EBB24B394C70160
:101E7000B5010E94C9309801492D682D0E94B90D05
:101E8000EC0CFD1C0D5F1F4F92E00B34190779F726
:101E90000E945D0E809131029C2FC0FB87F98093D8
:101EA00031029695809132028078892BD0FB87F998
:101EB0008093320280923302909234026091310218
:101EC000709132028091330290913402DF91CF9170
:101ED0001F910F91FF90EF90DF90CF90BF90AF9048
:101EE0009F908F900C94350EDF91CF911F910F91A1
:101EF000FF90EF90DF90CF90BF90AF909F908F902A
:101F0000089520913102221F2227221F3091320290
:101F1000432F440F842F822B37FB992790F90C967F
:101F200068E671E00E94DD30409134026091330236
:101F30000C94D90E20913102221F2227221F3091AA
:101F40003202432F440F842F822B37FB992790F9BD
:101F50008C3091051CF4845A9E4F01C00C9768E6A2
:101F600071E00E94DD3040913402609133020C94A4
:101F7000D90E60913302862F90E0873E910514F4CC
:101F8000675E01C06FEF80913102881F8827881F2C
:101F900090913202292F220F97FB992790F94091B7
:101FA0003402822B0C94D90E60913302862F90E07C
:101FB000499714F0695101C060E080913102881F97
:101FC0008827881F90913202292F220F97FB99278B
:101FD00090F940913402822B0C94D90E4091340236
:101FE000842F90E0843F910514F4445F01C04FEFCB
:101FF00080913102881F8827881F90913202292FF3
:10200000220F97FB992790F960913302822B0C9451
:10201000D90E40913402842F90E00C9714F04C506C
:1020200001C040E080913102881F8827881F90916D
:102030003202292F220F97FB992790F960913302E2
:10204000822B0C94D90E9091310290FF44C091786C
:10205000811102C0926003C0833220F09464909397
:10206000310205C08F73880F892B809331026091F4
:1020700031027091320280913302909134020E94B9
:10208000350E80913102982F9E77923019F410927C
:10209000890110C0982F96959F732EE3290F2F73F7
:1020A000273120F491E09093890104C0995D9F73DA
:1020B0009A3068F3881F8827881F90913202292F51
:1020C000220F97FB992790F94091340260913302D7
:1020D000822B0C94D90E0895809101028160809327
:1020E000010281E080938A010E944C1F811104C08B
:1020F0000E942B1F0E943B0E0E94310E6093310202
:102100007093320280933302909334026E7761F4BD
:102110000E943B0E0E94310E609331027093320296
:10212000809333029093340281E0809389018091FF
:10213000310280FF04C086958F730C94231008959C
:102140008091310286958F738F5F833208F081E032
:102150000C9423108091310286958F73815009F47D
:1021600082E20C942310CF93DF93C1E3D2E0888105
:1021700081608883609131027091320280913302D4
:10218000909134020E94350E888186958F73DF917D
:10219000CF910C942310E1E3F2E080818E7F808365
:1021A0006091310270913202809133029091340239
:1021B0000E94350E109289012FEF80E792E02150A6
:1021C00080409040E1F700C000000C945D0E8091CB
:1021D000310280FD0C94CB100C94B310CF93C82F18
:1021E00080918701909188010E947F20EC2FF0E080
:1021F000EA5FF44FE491F0E08E179F0708F442C0C5
:102200000E947320909388018093870160918601DA
:1022100070E080E090E00E94E72E20E030E04FE7A1
:1022200053E40E94202E2BED3FE049E450E40E944D
:1022300008300E946B300E948D2E2BE43AE34EE270
:102240005FE30E94BB2D20EF3BEF48ED52E40E947C
:1022500008300E94B92E462F80913102881F8827AE
:10226000881F90913202292F220F97FB992790F90E
:1022700060913302822B0E948B0E809186018F5FCA
:1022800080938601CF910895CF93C82F80918401C8
:10229000909185010E947F20EC2FF0E0ED5FF44FDC
:1022A000E491F0E08E179F07E8F00E94732090936E
:1022B00085018093840140913402609133028091C2
:1022C0008201909183010E948B0E809182019091F6
:1022D0008301019668E671E00E94C9309093830102
:1022E00080938201CF910895DF92EF92FF920F9336
:1022F0001F93CF93DF93D82E80918001909181011D
:102300000E947F20ED2DE695F0E0E050F54FE4913E
:10231000F0E08E179F07E8F10E94732090938101EF
:102320008093800109E312E0C0E0D0E028E6E22ECD
:10233000FF24F39480917E0190917F018C0F9D1F6B
:10234000B7010E94C9309801409134026091330274
:102350000E94B90DEC960D5F1F4FC83681E0D8077B
:1023600049F70E945D0E20917E0130917F01D0FEE1
:102370000AC0C9010196BE010E94C93090937F0135
:1023800080937E0106C02150310930937F01209354
:102390007E01DF91CF911F910F91FF90EF90DF9021
:1023A0000895AF92BF92CF92DF92EF92FF920F9378
:1023B0001F93CF93DF93C82F80FD03C0BB24B3943A
:1023C00002C0BB24BA9480917C0190917D010E944F
:1023D0007F20C695EC2FF0E0E350F54FE491F0E05C
:1023E0008E179F0708F466C00E94732090937D01AA
:1023F00080937C0159E3E52E52E0F52E0BE312E0C9
:10240000C0E0D0E0F80131971082F7011082F801A6
:10241000108244E0C42ED12CA12C80917B018A0D26
:1024200087FD8A5F992787FD9095C817D907E9F43A
:10243000809134028C9DA0018D9D500D11245595E5
:1024400047955595479580913102881F8827881FA9
:1024500090913202592F550F97FB992790F99701C8
:1024600060913302852B0E94B90DAB0CF1E0CF1ABD
:10247000D108C114D10489F6219683E0E80EF11C3D
:102480000D5F1F4FC630D10509F0BCCF0E945D0E15
:1024900080917B0191E0B91206C0811102C085E0F4
:1024A00007C0815005C090E00196BE010E94DD305A
:1024B00080937B01DF91CF911F910F91FF90EF905F
:1024C000DF90CF90BF90AF9008950F931F93CF935D
:1024D000DF93C82F8091790190917A010E947F202B
:1024E000EC2FF0E0E650F54FE491F0E08E179F07F7
:1024F00008F468C00E94732090937A018093790158
:10250000EBE3F2E0DF0111971C92DF0112971C92BE
:102510001082339682E0ED34F807A1F7C0E0D0E0F6
:1025200006E010E0CE01B8010E94DD302091780174
:10253000332727FD3095FC01EE0FFF1FC217D3078D
:102540000CF120910101332727FD30952C173D0711
:10255000CCF09F01280F391F275C3D4F809131023D
:10256000881F8827881F90913202592F550F97FB9B
:10257000992790F94091340260913302852B0E9493
:10258000B90D07C0E80FF91FE75CFD4F11821082FB
:1025900012822196C630D10529F60E945D0E209147
:1025A000000180917801820F809378019091010160
:1025B000920F90930101191614F485301CF02195A7
:1025C00020930001DF91CF911F910F910895EF9219
:1025D000FF920F931F93CF93DF9380917601909199
:1025E00077010E947F20883E9340C8F10E947320AB
:1025F0009093770180937601C0917401D091750119
:102600002196C170DD27D0937501C093740109E351
:1026100012E0F12C78E7E72E8F2D8695FE01E80F6A
:10262000F11DCF018170992798014091340260918A
:102630003302FC01EE9EC001EF9E900D11240E941A
:10264000B90DF3940D5F1F4FF6E0FF12E5CFDF9158
:10265000CF911F910F91FF90EF900C945D0EDF9141
:10266000CF911F910F91FF90EF9008958091890174
:10267000882391F120913102822F86958F739EE3FA
:10268000980F9F73943018F482500C94EE109AE3D4
:10269000980F9F73933018F486500C94441197E36D
:1026A000980F9F73963018F489500C94741191E32D
:1026B000980F9F73963018F48F500C94D1119BE2B1
:1026C000980F9F73933018F485510C9465122E77F0
:1026D000203311F40C94E712089531B3242F209580
:1026E000232331B3342B4FB7F894FC01680F791FC3
:1026F000E617F70789F0819198E031BB000000C030
:1027000087FF21BB880F000000C000C000C021BBB4
:1027100000C09A9591F7ECCF4FBF089520B3242BBA
:1027200020BB9B01220F331F260F371FB9010E94C8
:102730006D1387EC90E00197F1F700C00000089559
:1027400040E40C948E139093900180938F01089530
:10275000E0918F01F0919001309721F00190F0818C
:10276000E02D099480E00895E0918F01F0919001AF
:10277000309721F00280F381E02D09940895E091D3
:102780008F01F0919001309721F00480F581E02DC8
:102790000994089520918D0130918E01821793073D
:1027A00071F090938E0180938D01E0918F01F091F3
:1027B0009001309721F00680F781E02D099408956B
:1027C00020918B0130918C018217930771F09093C7
:1027D0008C0180938B01E0918F01F09190013097F3
:1027E00021F00084F185E02D0994089508950C945A
:1027F000F61381E008950E946A200E94B50C0E94A1
:102800003E210C946C105F926F927F928F929F92F8
:10281000AF92BF92CF92DF92EF92FF920F931F93EE
:10282000CF93DF93CDB7DEB72A970FB6F894DEBF0C
:102830000FBECDBF0E94030D0E94F913811111C07C
:102840008FEF89838A831B820E9473208160782F97
:102850009D838C8349815A816B818D810E94C11433
:1028600057C092E9C92E91E0D92E00E010E0AA24C9
:10287000A394B12C502E802F0E94AF0D3C01F60185
:10288000E190F1906F01E826F926E114F10431F4AA
:102890000F5F1F4F0530110569F7D2CF80910102FC
:1028A00081FD0E94B80D20E030E04501022E02C0FB
:1028B000880C991C0A94E2F7C4018E219F21892B70
:1028C00009F12E835F826820792081E0672809F46E
:1028D00080E088870E9473208160782F9A8789879B
:1028E0004E815F8168858A850E94C114F801EE0FD0
:1028F000FF1FEE56FE4F8081918188259925918397
:10290000808306C02F5F3F4F2F30310571F6C0CF57
:102910000E94DE23109191010E94A8131817D9F08C
:102920000E94A813809391012A960FB6F894DEBFF7
:102930000FBECDBFDF91CF911F910F91FF90EF9010
:10294000DF90CF90BF90AF909F908F907F906F90CF
:102950005F900C94050A2A960FB6F894DEBF0FBE5E
:10296000CDBFDF91CF911F910F91FF90EF90DF903E
:10297000CF90BF90AF909F908F907F906F905F901F
:102980000895CF93DF93CDB7DEB72B970FB6F894AA
:10299000DEBF0FBECDBF4F83588769877A878B878D
:1029A000DE01119686E0FD0111928A95E9F785E036
:1029B000FE01379601900D928A95E1F749815A817F
:1029C0006B817C818D819E810E941B1C2B960FB692
:1029D000F894DEBF0FBECDBFDF91CF910895FC010B
:1029E000808191810E947F1E0895CF93DF931F9273
:1029F000CDB7DEB7682F882309F402C18238C1F44D
:102A00000E94A81381FDFCC069E3809102019091AE
:102A100003010E94D91F0E94BF1E2FEF81EE94E098
:102A2000215080409040E1F700C0000069E319C0E8
:102A3000833811F50E94A81380FDE2C063E5809100
:102A40000201909103010E94D91F0E94BF1EEFEF67
:102A5000F1EE24E0E150F0402040E1F700C000003A
:102A600063E580910201909103010E94E41F0F90A1
:102A7000DF91CF910C94BF1E8438C1F40E94A8133B
:102A800082FDBEC067E480910201909103010E9423
:102A9000D91F0E94BF1E8FEF91EEE4E0815090405D
:102AA000E040E1F700C0000067E4DBCF8CEF860F69
:102AB000813A70F4862F69830E9402266981811110
:102AC0009FC080910201909103010E94D91FCFCF36
:102AD00080E2860F883048F4677081E001C0880F7B
:102AE0006A95EAF70E94F51EC2CF8BE5860F833008
:102AF00088F4653A29F0663A31F482E890E005C03E
:102B000081E890E002C083E890E00F90DF91CF91E0
:102B10000C94CA1388E5860F853108F071C0683AB5
:102B200061F1693A69F16A3A71F16B3A79F16C3A9B
:102B300081F16B3B89F16C3B91F16D3A99F1603B0E
:102B4000A1F16E3AA9F16F3AB1F1613BB9F1623B83
:102B5000C1F1633BC9F1643BD1F1653BD9F1663BFF
:102B6000E1F1673BE9F1683BF1F1693BF9F16A3B5F
:102B700009F03FC08AE292E03EC082EE90E03BC0A6
:102B800089EE90E038C08AEE90E035C085EB90E0A9
:102B900032C086EB90E02FC083EB90E02CC084EB3A
:102BA00090E029C087EB90E026C08CEC90E023C039
:102BB0008DEC90E020C083E891E01DC08AE891E0B0
:102BC0001AC082E991E017C084E991E014C081E263
:102BD00092E011C083E292E00EC084E292E00BC06A
:102BE00085E292E008C086E292E005C087E292E0CA
:102BF00002C080E090E00F90DF91CF910C94E01341
:102C00000F90DF91CF910895882309F45DC0823839
:102C100079F40E94A81381FF57C069E380910201F3
:102C2000909103010E94D91F0E94BF1E69E310C04A
:102C30008338B1F40E94A81380FF46C063E58091F9
:102C40000201909103010E94D91F0E94BF1E63E5FB
:102C500080910201909103010E94E41F0C94BF1E19
:102C6000843879F40E94A81382FF2EC067E4809113
:102C70000201909103010E94D91F0E94BF1E67E4C8
:102C8000E7CF9CEF980F913A10F4682FE1CF90E2D4
:102C9000980F983050F4877091E001C0990F8A9591
:102CA000EAF7892F0E94FB1ED9CF9BE5980F93303E
:102CB00020F480E090E00C94CA13885A853120F407
:102CC00080E090E00C94E0130895882321F00E94A6
:102CD000F51E0C94BF1E0895882321F00E94FB1E50
:102CE0000C94BF1E08958F929F92BF92CF92DF9255
:102CF000EF92FF920F931F93CF93DF9300D0CDB746
:102D0000DEB74C01472FFC01C580C2949FE0C92269
:102D1000D280DD2031F079836A830E94121F6A819C
:102D2000498149836A830E94B81E49816A81882348
:102D300089F0DD2079F080E2860F883058F082E05B
:102D40000E94A11E0E94B81EBB24B394B8264981DC
:102D50006A8101C0B12CE42EE2948FE0E822F12CCC
:102D6000F701E859FF4F0C94F130842F807F142F26
:102D70001F70882311F01295107FDD20C1F0112300
:102D800009F4DCC180E2860F883010F0611105C0C3
:102D9000812F6A830E94F51E04C0812F6A830E94DE
:102DA000051F6A816A830E94BF1E6A81C7C1862F80
:102DB0006A830E9404166A81112309F4E0C180E24B
:102DC000860F883010F0611104C0812F0E94FB1E15
:102DD00003C0812F0E940B1F0E94BF1ED0C1242F51
:102DE000207F842F8F70203211F08295807F6623A0
:102DF00019F06130B9F022C0DD2049F0CC2009F48F
:102E000052C1F1E0CF124FC10E94251FB8C1CC20A2
:102E100021F021E0C21609F4B2C189830E94281F63
:102E2000898147C1DD2029F095E09C1508F4A7C1F0
:102E30003AC1E4E0EC1508F4A2C13BC1DD2051F039
:102E4000CC2009F430C1F401958190FF77C19F70C7
:102E5000958329C1CC2009F42CC181C1242F26954A
:102E60002695237030E02115310521F02130310500
:102E700061F085C1DD2021F0862F942F937002C070
:102E800080E090E00E94CA138AC1DD2021F0862FE5
:102E9000942F937002C080E090E00E94E0137FC105
:102EA000DD20F9F0653F51F0663F71F0643FA9F411
:102EB00080914B0290914C0281600BC080914B023B
:102EC00090914C02826005C080914B0290914C021F
:102ED000846090934C0280934B02862F0E94E622DE
:102EE00022C0653F51F0663F91F0643FC9F4809184
:102EF0004B0290914C028E7F05C080914B029091C5
:102F00004C028D7F90934C0280934B0209C020911C
:102F10004B0230914C022B7F30934C0220934B029A
:102F2000862F0E944E230E94D32339C1842F8370A1
:102F300009F04EC0D1102FC1262F2295269527705B
:102F4000220F220F862F8F70C82ED12CE12CF12C4E
:102F5000022E04C0CC0CDD1CEE1CFF1C0A94D2F720
:102F600064FF10C06FE070E080E090E004C0660F86
:102F7000771F881F991F2A95D2F7609570958095C5
:102F8000909503C060E070E0CB01242F2695269534
:102F9000237030E02230310569F02330310589F0AB
:102FA0006C297D298E299F292130310571F00E94DD
:102FB0006C1DF1C06C297D298E299F290E947E1DE0
:102FC000EAC00E946C1DC701B6010E945A1DE3C0F1
:102FD000DD2019F0842F817001C08695882309F4C3
:102FE000DAC0262F229526952770220F220F862FD2
:102FF0008F70C82ED12CE12CF12C022E04C0CC0CE9
:10300000DD1CEE1CFF1C0A94D2F764FF10C06FE0B9
:1030100070E080E090E004C0660F771F881F991F62
:103020002A95D2F7609570958095909503C060E0E1
:1030300070E0CB01242F26952695237030E02230B6
:10304000310569F02330310589F06C297D298E29FD
:103050009F292130310571F00E941A1E9CC06C29F5
:103060007D298E299F290E942C1E95C00E941A1E20
:10307000C701B6010E94081E8EC0062F10E0F8019D
:10308000E05EF109E531F10508F054C0E858FF4F62
:103090000C94F130162F1F70842F8F71DD2031F0CA
:1030A0000E94B31D812F0E94651669C00E94CE1D2B
:1030B000812F0E946C1663C0DD2049F0F4E0FC15FE
:1030C00008F45DC0842F8F710E94ED1D58C025E06B
:1030D0002C1508F454C0F6CFDD2039F0842F8F7101
:1030E0000E94B31D4CC0DD20C9F3842F8F710E9454
:1030F000CE1D45C0DD2029F0842F8F710E94A41DB4
:103100003EC00E949F1D3BC0DD2051F0142F1F7157
:10311000812F0E94B31D63E0812F0E94981E2FC053
:1031200081E00E94A11E81E08C1548F582E00E949A
:10313000A11E25C0DD2031F0CC2081F2862F0E9417
:10314000F5141DC0CC2089F2693349F49FEFE7EEF6
:10315000F3E09150E040F040E1F700C00000862F1E
:103160000E9404160CC04F70C4010E943F070E94C9
:10317000C81C15C04F70C4010E94070A10C028E087
:10318000E216F10441F05CF09AE0E91AF108E2E09D
:10319000EE16F10420F40E94A8130E94050ABB2039
:1031A000F1F00E94941E80FD1AC0F40112820E9468
:1031B0008E1E0E94B31DC4010E94FD180E948E1E27
:1031C0000F900F90DF91CF911F910F91FF90EF9093
:1031D000DF90CF90BF909F908F900C94CE1D0F905A
:1031E0000F90DF91CF911F910F91FF90EF90DF90A3
:1031F000CF90BF909F908F9008950F931F93CF9380
:10320000DF93EC01288139818B819C81892B31F0FE
:103210003F3F11F080E003C02F3FE1F781E08111D3
:1032200013C0CE010E945607882371F0688179810E
:103230008A810E948A1E8C010E943E1E0E94571D98
:10324000B801CE010E947316DF91CF911F910F91AB
:1032500008950E94121F0E94221F809102019091E6
:1032600003010E94EF1F0E94BF1E0E9467240E945C
:10327000D32380E090E00E94CA1380E090E00C9499
:10328000E0130E94021F0C9429190E947F1EE92F4F
:10329000E295EF70F0E03297EE30F105B8F4E357C5
:1032A000FF4F0C94F130803F59F018F4803E70F4D9
:1032B00007C0843F59F404C0803E10F0813F31F4D0
:1032C00081E0089593FB882780F9089580E00895B0
:1032D000CF93DF9300D000D01F92CDB7DEB70F9011
:1032E0000F900F900F900F90DF91CF910895CF9393
:1032F000DF9300D000D000D0CDB7DEB726960FB652
:10330000F894DEBF0FBECDBFDF91CF9108951F931C
:10331000CF93DF93C0919C0116E080919D01C81767
:1033200099F0D0E01C9FF0011D9FF00D1124E25692
:10333000FE4F4081518162817381848195810E9419
:1033400077192196C770E9CFDF91CF911F9108952A
:103350004091CE015091CF016091D0017091D10187
:103360008091D2019091D3010C947719CF938091E1
:10337000D30182958F7009F05FC08091D0018823BE
:1033800009F45AC020919C01A0919D016091CE0149
:103390007091CF018091D1019091D20131E06F3FC6
:1033A00009F030E0B32FC6E02A1709F445C00097B2
:1033B00021F07F3F21F44B2F03C041E001C040E0EA
:1033C00030E040FD35C0C29FF001C39FF00D1124D5
:1033D000E256FE4F418174132BC04081641328C014
:1033E0004281411125C0438154814817590710F487
:1033F00041505109481B590B483C5105C8F4809174
:10340000D3018F7080618093D30186E0829FF001A9
:10341000839FF00D1124ED55FE4F80818F708061E8
:1034200080838EEC91E00E94FD18CF910C94871957
:103430002F5F3F4F2770B8CFCF910895CF92DF9283
:10344000EF92FF920F931F93CF93DF93CDB7DEB729
:1034500062970FB6F894DEBF0FBECDBF8C0185E03A
:10346000F801DE011D9601900D928A95E1F7D801D1
:103470004C9111965C91119712966C91129713963C
:10348000ED90FC9014977091CE01E091CF012091C6
:10349000D1013091D2012115310531F0EF3F31F4E6
:1034A00081E07F3F19F403C081E001C080E0B82FC4
:1034B000B170CB2E80FD6BC1D090D001DD2009F41E
:1034C000F5C0F091D301E216F30638F0C701821B74
:1034D000930B883C910548F09DC0209530952E0DAA
:1034E0003F1D283C310508F095C08F2F807F09F0E3
:1034F00052C0E51314C0741312C0D62E61110FC050
:10350000FF70F061F093D3010E94A8198EEC91E056
:103510000E94FD188091D301F80185837CC1EF28BA
:1035200031F05F3F31F481E04F3F19F403C081E097
:1035300001C080E080FD03C081E0862701C080E0FB
:10354000F82FF170FF2E80FF1CC080919C0120910C
:103550009D0136E0821709F438C190E0389FF001F0
:10356000399FF00D1124E256FE4F7181571306C0AA
:103570007081471303C07281671303C0019687707F
:10358000E9CFD62E662309F446C18091D30181602C
:103590008093D30155C0E51308C0741306C06111B0
:1035A00004C0D8011596FC93AEC04D875E878D850B
:1035B0009E856A8B0E9445196A89882329F1D62E37
:1035C000662311F12091D301822F82958F7090E0B4
:1035D00002970CF462C08091CE019091CF01988740
:1035E0008F831986FB86EA862C87CE01079653C007
:1035F000E51741F14D875E878D859E856A8B0E9418
:1036000045196A89811130C0C8010E94FD18DD2466
:10361000D39401C18F2F807F59F77E2DF98AE88AD4
:1036200089890E9468198EEC91E00E94FD18EEECE9
:10363000F1E086E0DF011D928A95E9F70E94A81962
:10364000D12CE9C07413D6CF6111D4CFD80115960F
:10365000FC93C8010E94FD18EEECF1E086E0DF016A
:103660001D928A95E9F7D7C0D62E662369F220917C
:10367000D301822F82958F7090E0029774F0809131
:10368000CE019091CF019A8389831B82FD82EC82C7
:103690002E83CE0101960E94FD1886E0F801AEEC63
:1036A000B1E001900D928A95E1F78AC0E216F30627
:1036B00028F0C701821B930B9C0104C02095309514
:1036C0002E0D3F1D283C310508F053C0D62E662331
:1036D00009F49ACFE5132CC074132AC08091D3014A
:1036E00080FD1DC0982F92959F70C9F0D801159646
:1036F0008C9315979F3039F09F5F9295907F8F70D4
:10370000892B15968C93C8010E94FD1886E0F8015C
:10371000AEECB1E001900D928A95E1F753C086E0DE
:10372000F801AEECB1E001900D928A95E1F773C01B
:103730004D875E878D859E850E944519882381F07F
:1037400096E0F801AEECB1E001900D929A95E1F7A8
:103750008A8B0E94B6190E94A8198A89D82E5BC04C
:103760008091D30181608093D301C8010E94FD182C
:1037700052C07E2DF98AE88A89890E946819EEEC88
:10378000F1E086E0DF011D928A95E9F71BC0662310
:1037900009F43ACF4D875E878D859E850E94451935
:1037A000D82E882309F430CF86E0F801AEECB1E0E2
:1037B00001900D928A95E1F78EEC91E00E94EF1452
:1037C0000E94B6190E94A81926C04D875E878D8574
:1037D0009E850E947F1E292F22952F7030E0223077
:1037E00031052CF49F7041F0811106C00CC02430CB
:1037F00031052CF49F7049F4805E883020F0C801B8
:103800000E94FD18CF2CDC2C06C0D80115969C9187
:10381000907F91F7F8CF8D2D62960FB6F894DEBFAA
:103820000FBECDBFDF91CF911F910F91FF90EF9011
:10383000DF90CF9008951F93CF93DF93CDB7DEB77E
:103840002C970FB6F894DEBF0FBECDBF4F835887BD
:1038500069877A878B879C87CE0107960E941E1AFC
:103860008823C1F02F8138858A859B85892B31F08B
:103870003F3F11F080E003C02F3FE1F781E081116D
:1038800047C04F81588569857A858B859C850E94C4
:1038900077193EC086E0FE013796DE011196019051
:1038A0000D928A95E1F7FF81E8854A855B85411590
:1038B000510531F0EF3F31F481E0FF3F19F403C0CF
:1038C00081E001C080E080FD23C020919D0130E0B7
:1038D000C90101968770992760919C0170E0861755
:1038E0009707F1F1F983EA835D834C8396E0929F19
:1038F000D001939FB00D1124A256BE4FFE01319608
:1039000001900D929A95E1F780939D010E9487198D
:1039100016E080919C0190919D01891779F1189F83
:10392000C001112482569E4F0E941E1A882331F135
:10393000E0919C011E9FF0011124E256FE4F408150
:10394000518162817381848195810E947719809170
:103950009C0190E001968770992780939C01D9CFB4
:103960000E94411910929D0110929C01EEECF1E031
:1039700086E0DF011D928A95E9F7CACF2C960FB633
:10398000F894DEBF0FBECDBFDF91CF911F91089598
:10399000EF92FF920F931F93CF93DF939C010097B9
:1039A00009F471C0F12CEE24E394E9012196F901A8
:1039B0008491843740F4843008F056C0813081F01F
:1039C000823021F160C0853709F449C0C0F19CE71D
:1039D000980F903708F057C08F770E94041646C0A2
:1039E00089010E5F1F4FFE01849190E2980F98307D
:1039F00050F48770FE2D01C0FF0F8A95EAF78F2FD4
:103A00000E94151F15C00E94F51414C089010E5F95
:103A10001F4FFE01849190E2980F983068F48770F0
:103A2000FE2D01C0FF0F8A95EAF78F2F0E941B1F02
:103A30000E94BF1EE8011AC00E940416FBCF2E5F31
:103A40003F4FFE01C491CC2341F08FE99FE00197E5
:103A5000F1F700C00000C150F6CFE90107C0FE0138
:103A6000F490E901229602C00E94F5148F2D88235C
:103A700041F0EFE9FFE03197F1F700C0000081501D
:103A8000F6CF9E0192CFDF91CF911F910F91FF90C2
:103A9000EF90089508950E944A1D6093D801709395
:103AA000D9018093DA019093DB010C9429190895D0
:103AB0000C944B1D0F931F930091D8011091D901C5
:103AC0002091DA013091DB01602B712B822B932B3B
:103AD0001F910F910C944B1D0F931F930091D801D0
:103AE0001091D9012091DA013091DB01602371231B
:103AF000822393231F910F910C944B1D0F931F93BF
:103B00000091D8011091D9012091DA013091DB01A7
:103B100060277127822793271F910F910C944B1DCB
:103B200008950C94901D0E94911D6093D401709390
:103B3000D5018093D6019093D7010C94291960E0A8
:103B400070E0CB010C94931D41E050E060E070E028
:103B500004C0440F551F661F771F8A95D2F7CB010B
:103B6000BA010C94931D41E050E060E070E004C0A5
:103B7000440F551F661F771F8A95D2F78091D40195
:103B80009091D501A091D601B091D701482B592B26
:103B90006A2B7B2BCB01BA010C94931D41E050E0C2
:103BA00060E070E004C0440F551F661F771F8A95C0
:103BB000D2F740955095609570958091D401909181
:103BC000D501A091D601B091D701482359236A238A
:103BD0007B23CB01BA010C94931D41E050E060E0DF
:103BE00070E004C0440F551F661F771F8A95D2F7F7
:103BF0008091D4019091D501A091D601B091D701C7
:103C0000482759276A277B27CB01BA010C94931DBB
:103C10000F931F930091D4011091D5012091D601EB
:103C20003091D701602B712B822B932B1F910F9119
:103C30000C94931D0F931F930091D4011091D50103
:103C40002091D6013091D7016023712382239323E1
:103C50001F910F910C94931D0F931F930091D4010A
:103C60001091D5012091D6013091D701602771279D
:103C7000822793271F910F910C94931D0895CF9243
:103C8000DF92EF92FF920F931F93CF93DF93EC019C
:103C9000C090D801D090D901E090DA01F090DB011A
:103CA0008091D4019091D501A091D601B091D70116
:103CB000C82AD92AEA2AFB2A0FE110E0B701A60197
:103CC000002E04C076956795579547950A94D2F7CC
:103CD00040FD05C00150110988F780E007C0BE0112
:103CE000802F0E94220A0197A9F3802FDF91CF91A4
:103CF0001F910F91FF90EF90DF90CF900895CF9399
:103D0000DF93EC010E943F1EBE010E94220ADF9158
:103D1000CF910895CB010E947F1E08958091DC0110
:103D200085958595859508958091DC018770089526
:103D300098E0899F90011124622B6093DC010C9420
:103D4000B31D4091DC01809584238093DC01982F82
:103D5000977069F450E0282F332727FD30954217DC
:103D6000530729F08595859585950C94CE1D08956A
:103D70009091DC01977081E009F480E00895E09172
:103D80000201F0910301809100028083E091020121
:103D9000F091030180819091FF01892B8083E09154
:103DA0000201F091030180819091FE01892B8083B3
:103DB0009091DD01992381F0E0910201F0910301DE
:103DC0008081892B808380910201909103010E9460
:103DD000721F81111092DD01809102019091030107
:103DE0000C94B41380910002089590910002982BD6
:103DF00090930002089580959091000298239093EB
:103E0000000208951092000208959091FF01982BEE
:103E10009093FF01089580959091FF0198239093CE
:103E2000FF0108951092FF0108959091FE01982BD3
:103E30009093FE01089580959091FE0198239093B0
:103E4000FE0108951092FE0108958093DD0108950A
:103E50001092DD0108956DEE7EEF80E090E00E940B
:103E6000293160E082E090E00E940B3160E083E065
:103E700090E00E940B3160E084E090E00E940B3102
:103E800060E085E090E00E940B3140E050E0BA0134
:103E900088E090E00C941D3180E090E00E940531B4
:103EA00021E08D3E9E4F09F020E0822F089582E0B0
:103EB00090E00C94F730682F82E090E00C940B3186
:103EC00083E090E00C94F730682F83E090E00C944E
:103ED0000B3184E090E00C94F730682F84E090E0A0
:103EE0000C940B3120E030E040E0FC01E20FF31FC6
:103EF000518151114F5F2F5F3F4F2F313105A9F78E
:103F0000842F089520E030E04FEFFC01E20FF31F13
:103F10005281561799F04F3F19F4511101C0422FA9
:103F20002F5F3F4F2E31310581F74F3F39F0FC01B4
:103F3000E40FF11D47FDFA9562830895089520E08E
:103F400030E0FC01E20FF31F4281461301C01282F0
:103F50002F5F3F4F2E313105A1F70895262F26956B
:103F6000269526952F3170F4FC01E20FF11D677044
:103F700021E030E0062E01C0220F0A94EAF7818189
:103F8000822B81830895262F2695269526952F31FD
:103F900078F4FC01E20FF11D677021E030E0062E9D
:103FA00001C0220F0A94EAF72095818128232183FA
:103FB000089520911401222329F02091510227FD18
:103FC0000C94AE1F0C94821F20911401222329F01F
:103FD0002091510227FD0C94C31F0C949F1F20E0D9
:103FE00030E0FC01E20FF31F11822F5F3F4F2F31B2
:103FF0003105B9F7089580915702843021F110926C
:10400000020220E488E190E00FB6F894A89580932E
:1040100060000FBE2093600080E00E94050A83B715
:10402000817F846083BF83B7816083BF78948895E4
:1040300083B78E7F83BF88E10FB6F89480936000CA
:10404000109260000FBE089508950895CF930E94C6
:1040500024200E94030D0E942520C0E08C2F0E9486
:10406000AF0D892B29F4CF5FC530C1F780E001C0C7
:1040700081E0CF9108950E9441190E94A8130C94E9
:10408000050A1F920F920FB60F9211248F939F93E0
:10409000AF93BF9380910202811113C080914D02B2
:1040A00090914E02A0914F02B09150024196A11DF5
:1040B000B11D80934D0290934E02A0934F02B09396
:1040C0005002BF91AF919F918F910F900FBE0F90B3
:1040D0001F90189582E084BD93E095BD9AEF97BD3F
:1040E00080936E0008952FB7F89480914D029091BF
:1040F0004E02A0914F02B09150022FBF0895CF926F
:10410000DF92EF92FF920F931F932FB7F894409195
:104110004D0250914E0260914F02709150022FBF9C
:104120006A017B01EE24FF248C0120E030E0C01600
:10413000D106E206F30610F441505109481B590B11
:10414000CA011F910F91FF90EF90DF90CF900895DB
:1041500078941F920F920FB60F9211248F939F9312
:10416000AF93BF9380914D0290914E02A0914F0268
:10417000B09150020196A11DB11D80934D02909304
:104180004E02A0934F02B0935002BF91AF919F9106
:104190008F910F900FBE0F901F90189581E0809324
:1041A000E00080E28093D8001092C9008FE19EE485
:1041B0000197F1F700C0000087E090EBDC018093ED
:1041C000600290936102A0936202B09363022CE0BC
:1041D00088E190E00FB6F894A895809360000FBE38
:1041E00020936000FFCFBF92CF92DF92EF92FF92B9
:1041F0000F931F93CF93DF93B12C01E010E0E82ED3
:10420000F12C8B2D0E94AF0D6C01C0E0D0E0980125
:104210000C2E02C0220F331F0A94E2F72C213D21FD
:10422000232B29F42196CF30D10589F70AC06C2FB2
:104230007B2D80E00E94080AE816F90699F781E0D4
:1042400005C0B39485E0B812DCCF80E0DF91CF9158
:104250001F910F91FF90EF90DF90CF90BF90089546
:10426000CF93C82F8CE20E94F320882321F08C2F5B
:10427000CF910C94F32080E0CF910895CF930E94CA
:104280004C1F811102C00E942B1FC5E6C15049F08E
:104290000E94030D8FE39CE90197F1F700C0000035
:1042A000F5CF89E20E94302181110DC18AE20E947E
:1042B000302181110E942B1F85E00E943021811145
:1042C0000E94CE200E94571F8093010287E00E9427
:1042D0003021882399F18BE10E943021882351F00D
:1042E0009091010291FB882780F921E0822780FBD1
:1042F00091F922C08EE00E943021882351F09091E4
:10430000010292FB882780F921E0822780FB92F945
:1043100013C080E10E94302190910102882341F076
:1043200093FB882780F921E0822780FB93F904C062
:10433000892F809580FB90F9909301028091010272
:104340000E945B1F0E94691F90E09093520280932D
:10435000510280EE0E943021882341F08091510269
:10436000982F909590FB80F98093510289E30E94E9
:104370003021882359F09091510291FB882780F9D0
:1043800021E0822780FB91F99093510282EE0E94F6
:104390003021882359F09091510292FB882780F9AF
:1043A00021E0822780FB92F99093510286EE0E94D1
:1043B0003021882359F09091510293FB882780F98E
:1043C00021E0822780FB93F99093510283EE0E94B3
:1043D0003021882359F09091510294FB882780F96D
:1043E00021E0822780FB94F99093510285E30E949B
:1043F0003021882359F09091510295FB882780F94C
:1044000021E0822780FB95F99093510281E30E947D
:104410003021882359F09091510296FB882780F92A
:1044200021E0822780FB96F99093510281E10E945E
:104430003021882359F09091510297FB882780F909
:1044400021E0822780FB97F99093510280915102DD
:104450000E946D1F87E20E943021C82F8EE10E94CA
:1044600030218111C2608FE10E9430218111C4602E
:1044700080E20E9430218111C86081E20E943021D7
:104480008111C06182E20E9430218111C06283E209
:104490000E9430218111C06484E20E94302188236F
:1044A00011F0C06802C0CC2329F08C2F0E94641F39
:1044B0006C2F03C00E94601F682F70E080E090E0C6
:1044C000CF910C94581DCF9108958091050280FFE3
:1044D0000BC06091070185E0689FB00111247595BC
:1044E0006795759567952AC081FF09C0609107019E
:1044F00085E0689FB0011124759567951FC082FF04
:1045000007C06091070185E0689FB001112416C0C3
:10451000409106024423C9F060910601461788F7CE
:104520002091070185E0289F90011124429FC0013E
:10453000439F900D112470E00E94DD3060387105BA
:1045400040F46115710539F002C065E070E0862F16
:1045500008958FE7089581E008958091050280FF16
:1045600008C06091050170E0759567957595679530
:1045700021C081FF06C06091050170E075956795C7
:1045800019C082FF04C06091050170E010C08091E5
:1045900006028823C1F0609104018617A0F790916C
:1045A0000501989FC001112470E00E94DD30603841
:1045B000710528F46115710521F0862F08958FE7A4
:1045C000089581E0089561E070E0F4CF803F21F428
:1045D0000E946522819504C0813F29F40E946522D2
:1045E000809309020895823F21F40E9465228195FB
:1045F00004C0833F29F40E94652280930802089535
:10460000893F19F40E94AD2205C08A3F31F40E940F
:10461000AD22819580930A0208958B3F21F40E9478
:10462000AD22819504C08C3F29F40E94AD22809375
:104630000B020895843F21F480910702816017C026
:10464000853F21F480910702826011C0863F21F4EA
:104650008091070284600BC0873F21F4809107029C
:10466000886005C0883F31F48091070280618093A3
:10467000070208958D3F21F48091050281600BC0EF
:104680008E3F21F480910502826005C08F3F29F49E
:10469000809105028460809305020895803F39F47B
:1046A0008091090287FF6CC01092090269C0813FA6
:1046B00029F4809109021816BCF362C09091080297
:1046C000823F29F497FF5CC01092080259C0833FD3
:1046D00019F41916CCF354C0893F41F480910A02B1
:1046E00018160CF04DC010920A024AC08A3F29F4F5
:1046F00080910A0287FF44C0F6CF8B3F39F4809146
:104700000B0287FF3DC010920B023AC08C3F29F488
:1047100080910B021816BCF333C0843F21F48091C2
:1047200007028E7F17C0853F21F4809107028D7F9D
:1047300011C0863F21F4809107028B7F0BC0873F19
:1047400021F480910702877F05C0883F31F4809172
:1047500007028F7E8093070213C08D3F21F4809162
:1047600005028E7F0BC08E3F21F4809105028D7F64
:1047700005C08F3F29F4809105028B7F809305024D
:104780008091080281110EC08091090281110AC036
:1047900080910A02811106C080910B02811102C032
:1047A00010920602089587E092E00E94BF130E94D3
:1047B0007320909304028093030208951F93CF9374
:1047C000DF9380910302909104020E947F20409128
:1047D0000602442321F02091080130E006C0209118
:1047E00009015AE0259F900111248217930708F4CC
:1047F0006AC08091080210910902D0910A02C0910A
:104800000B02811107C0111105C0D11103C0CC23C7
:1048100009F459C04F3F19F04F5F40930602181634
:1048200024F40E946522809308028091080287FF89
:1048300005C00E946522819580930802111624F418
:104840000E946522809309028091090287FF05C0BA
:104850000E946522819580930902209108022223FB
:1048600079F040910902442359F055EB250390015A
:104870001124309308024503C001112490930902CA
:104880001D1624F40E94AD2280930A0280910A0230
:1048900087FF05C00E94AD22819580930A021C16F5
:1048A00024F40E94AD2280930B0280910B0287FFBB
:1048B00005C00E94AD22819580930B02DF91CF91BC
:1048C0001F910C94D323DF91CF911F910895E7E0BE
:1048D000F2E085E0DF011D928A95E9F71092060269
:1048E000109205020895833081F128F4813059F047
:1048F0008230D1F00895853009F449C0B8F186308E
:1049000009F456C0089520910901862F90E0820F86
:10491000911D8F3F910520F4620F60930901089566
:104920008FEF80930901089520910801862F90E070
:10493000820F911D8F3F910520F4620F6093080153
:1049400008958FEF80930801089520910701862F25
:1049500090E0820F911D8F3F910520F4620F6093CC
:10496000070108958FEF80930701089520910601B4
:10497000862F90E0820F911D8F3F910520F4620FEA
:104980006093060108958FEF8093060108952091AA
:104990000501862F90E0820F911D8F3F910520F435
:1049A000620F6093050108958FEF809305010895CC
:1049B00020910401862F90E0820F911D8F3F910579
:1049C00020F4620F6093040108958FEF8093040137
:1049D0000895833011F128F4813049F0823091F04C
:1049E0000895853081F120F18630C1F108958091DC
:1049F0000901681720F4861B80930901089510921D
:104A00000901089580910801681720F4861B80939E
:104A10000801089510920801089580910701681710
:104A200020F4861B809307010895109207010895D2
:104A300080910601681720F4861B80930601089573
:104A400010920601089580910501681720F4861BD5
:104A50008093050108951092050108958091040145
:104A6000681720F4861B80930401089510920401B6
:104A700008958B3109F46AC008F58E3009F470C0CE
:104A800070F4873009F452C018F48630B9F134C09C
:104A9000883009F4A6C08B3009F4A3C02DC0813141
:104AA00009F479C020F4803109F464C025C086314E
:104AB00009F497C0893109F494C01EC0853309F404
:104AC00088C060F4873209F484C020F48E3108F085
:104AD00072C012C0893209F47CC00EC0833438F42D
:104AE0008A3308F066C0883309F47BC005C083347C
:104AF00009F46FC0883461F080E00895809101026C
:104B0000817F8E7F8093010281E080930D02089562
:104B10000E9441192FEF83ED90E321508040904097
:104B2000E1F700C000000E94CE205BC0909101021E
:104B3000892F8095817080FB90F9909301028111FB
:104B400050C0997F977F909301024BC090910102D2
:104B500091FB882780F921E0822780FB91F913C01F
:104B60009091010292FB882780F921E0822780FB47
:104B700092F909C09091010293FB882780F921E006
:104B8000822780FB93F990930102882351F1916071
:104B90009093010208950E9441199091510297FB50
:104BA000882780F921E0822780FB97F990935102B2
:104BB00018C027EC01C023EE280F61E070E080E010
:104BC00090E004C0660F771F881F991F2A95D2F7BF
:104BD00004C061E070E080E090E00E94581D0E94F7
:104BE000411981E0089580E0089580E008958E5194
:104BF0008A3030F4E82FF0E0E75DFE4F80810895C1
:104C000080E00895CF93C82F80910D02813069F024
:104C100018F08230B1F180C0E0910201F0910301FF
:104C20008081823209F07AC007C0E0910201F091E0
:104C300003018081823249F48C2F0E94F325811177
:104C40001DC08C2F0E9439251AC08C2F0E94F5257B
:104C5000811114C0C43179F048F4CB3079F0C031FF
:104C600009F060C082E080930D0208C0C93219F0DB
:104C7000C83321F057C010920D0254C081E08170FA
:104C800053C0C93289F118F5C43171F1B0F4C7309D
:104C900009F046C08EE18093090182E38093080108
:104CA0008AE08093070184E18093060188E0809385
:104CB000050188E28093040133C082EE8C0F8630B8
:104CC00078F58C2F0E94F72580930C0229C0CE34F2
:104CD000E9F020F4CB3421F56AE013C0C13579F056
:104CE000C235F1F461E00DC080910C02882319F007
:104CF00010920C0215C081E080930D0215C061E096
:104D000006C080910C020E9473240AC06AE0809160
:104D10000C020E94E92404C010920D0280E004C03D
:104D200081E002C080E0ABCFCF91089580912E0248
:104D300008950F931F93CF93DF9300D01F92CDB7A9
:104D4000DEB78C010E940F29823011F0843019F5F2
:104D500083E089831B830A838093E9008FEF90911E
:104D6000E800815095FD06C095ED9A95F1F7000099
:104D70008111F5CF8091E80085FF0DC040E050E043
:104D800063E070E0CE0101960E942C298091E8003A
:104D90008E778093E8000F900F900F90DF91CF9166
:104DA0001F910F910895CF93DF9300D01F92CDB73D
:104DB000DEB720915702243031F522E02983805854
:104DC00091099B838A8383E08093E9008FEF909120
:104DD000E800815095FD06C095ED9A95F1F7000029
:104DE0008111F5CF8091E80085FF0DC040E050E0D3
:104DF00063E070E0CE0101960E942C298091E800CA
:104E00008E778093E8000F900F900F90DF91CF91F5
:104E10000895CF93DF93EC010E940F29823011F0A7
:104E20008430F9F482E08093E9008FEF9091E800FC
:104E3000815095FD06C095ED9A95F1F7000081111E
:104E4000F5CF8091E80085FF0CC040E050E065E0C0
:104E500070E0CE010E942C298091E8008E7780932B
:104E6000E800DF91CF910895CF93DF93EC010E948A
:104E70000F29823019F0843009F047C08091140165
:104E80008823E1F08091510287FF18C084E080936D
:104E9000E9008FEF9091E800815095FD06C095E103
:104EA0009A95F1F700008111F5CF8091E80085FF18
:104EB0002CC040E050E060E270E017C081E08093D9
:104EC000E9008FEF9091E800815095FD06C095EDC7
:104ED0009A95F1F700008111F5CF8091E80085FFE8
:104EE00014C040E050E068E070E0CE010E942C2940
:104EF0008091E8008E778093E80080E2FE01AEE0CA
:104F0000B2E001900D928A95E1F7DF91CF9108957B
:104F100080915602811109C00E94BE2A0E941B2B5B
:104F20008091E20084608093E2000895109256021E
:104F30000895089508950C943B2042E061EC81E0CF
:104F40000E94382A42E061EC82E00E94382A42E066
:104F500061EC83E00E94382A42E261EC84E00C9428
:104F6000382A80915902833009F455C030F48130D9
:104F700071F0823009F48EC008958A3009F47AC045
:104F80008B3009F460C0893009F09CC020C080914A
:104F90005802813A09F096C08091E800877F80939B
:104FA000E80080915C0290915D02892B21F060E025
:104FB00080E090E003C060E28EE092E070E00E944A
:104FC00075298091E8008B778093E800089580919F
:104FD0005802813209F076C080915C0290915D02A6
:104FE000009719F0039709F06DC08091E800877F62
:104FF0008093E8008091E80082FD05C0809157020F
:105000008111F8CF5FC08091F10080932E028091D2
:10501000E8008B7753C080915802813A09F052C062
:1050200080915C0290915D02892B09F04BC08091C8
:10503000E800877F8093E8008091E80080FFFCCF44
:105040008091140136C0809158028132D9F5809147
:105050005C0290915D02892BA9F58091E800877F21
:105060008093E8000E946D2A80915A028093140177
:105070000C94411980915802813221F58091E80009
:10508000877F8093E8000E946D2A80915B02809365
:105090002F02089580915802813AA1F48091E8008E
:1050A000877F8093E8008091E80080FFFCCF8091AB
:1050B0002F028093F1008091E8008E778093E800C2
:1050C0000C946D2A089584B7877F84BF88E10FB65A
:1050D000F89480936000109260000FBE80E8809387
:1050E0006100109261000E94F7130E94BE2A0E9484
:1050F0001B2B8091E20084608093E20078940E94F0
:105100009E2D0E94FB138AE091E00E94A3138091E0
:105110005702853069F40E94FB1F80915502882355
:10512000B1F30E942620882391F30E941629EFCF25
:105130000E9403140E943613EACF0C949F28292F53
:10514000332723303105A9F06CF42130310509F4FF
:1051500048C02230310509F049C08DE690E02EE2CA
:105160003CE048C021323105F9F02232310549F1E5
:105170003DC099278130910571F02CF4892BB1F550
:10518000EAE2FCE00DC08230910541F0039771F531
:10519000EAE0FCE005C0ECE1FCE002C0E0E1FCE09C
:1051A000849190E09F0126C064307105F8F4FB0102
:1051B000EE0FFF1FE15CFE4F2081318189E090E01E
:1051C00019C06430710590F4FB01EE0FFF1FE95C1C
:1051D000FE4F20813181FB01ED5CFE4F808190E02C
:1051E00009C082E190E02BE93CE004C080E090E05F
:1051F00020E030E0FA013183208308950895CF93B1
:10520000C82F0E94FE28C0933002CF91089580914C
:105210005702843011F482E0089581E0089580916E
:105220003002811102C00C940729089580E189BDE4
:1052300082E189BD09B400FEFDCF8091D8008F7D49
:105240008093D8008091E00082608093E00080919C
:10525000E00081FDFCCF0895CF92DF92EF92FF92A4
:105260000F931F93CF93DF937C018B01EA010E9480
:105270008E2A811131C0209731F088819981081BD5
:10528000190BE80EF91EC12CD12C0115110519F1CD
:105290008091E80085FD14C08091E8008E778093AE
:1052A000E800209741F0888199818C0D9D1D99839C
:1052B000888385E011C00E948E2A882331F30CC0B8
:1052C000F70181917F018093F10001501109FFEFF7
:1052D000CF1ADF0ADACF80E0DF91CF911F910F91D3
:1052E000FF90EF90DF90CF90089520915E02309173
:1052F0005F022617370748F06115710539F42091D0
:10530000E8002E772093E80001C0B901FC0120E0FD
:1053100061157105B9F180915702882309F440C0E5
:10532000853009F43FC08091E80083FD3DC0809145
:10533000E80082FF06C08091E80082FF26C080E07E
:1053400008958091E80080FFE3CF2091F3008091E1
:10535000F20090E0922B6115710551F088309105B3
:1053600038F421912093F100615071090196F3CF37
:1053700021E0089709F020E08091E8008E77809383
:10538000E800C6CF2111C7CFD6CF8091570288231E
:1053900039F0853039F08091E80083FFCCCF04C02C
:1053A00082E0089583E0089581E0089520915E02EF
:1053B00030915F022617370748F06115710539F4FF
:1053C0002091E8002E772093E80001C0B901FC018C
:1053D00020E061157105C1F180915702882309F41D
:1053E00041C0853009F440C08091E80083FD3EC093
:1053F0008091E80082FF06C08091E80082FF27C00C
:1054000080E008958091E80080FFE3CF2091F300D1
:105410008091F20090E0922B6115710559F088306F
:10542000910540F424912093F10031966150710967
:105430000196F2CF21E0089709F020E08091E80082
:105440008E778093E800C5CF2111C6CFD5CF80914C
:105450005702882339F0853039F08091E80083FFC6
:10546000CBCF04C082E0089583E0089581E00895E1
:10547000982F973058F59093E900981739F070916C
:10548000EC002091ED005091F00003C0242F762F06
:1054900050E021FF19C03091EB003E7F3093EB00CC
:1054A0003091ED003D7F3093ED003091EB003160A5
:1054B0003093EB007093EC002093ED005093F000DC
:1054C0002091EE0027FF07C09F5FD3CF8F7080939E
:1054D000E90081E0089580E008958091580287FDF9
:1054E00005C08091E80080FF0EC012C08091E800E6
:1054F00082FD05C0809157028111F8CF08958091F7
:10550000E8008B7708C0809157028111EACF089597
:105510008091E8008E778093E80008958091E40000
:105520009091E50045E62091EC0020FF21C02091FC
:10553000E80020FD21C020915702222389F0253068
:1055400089F02091EB0025FD0FC02091E4003091FF
:10555000E5002817390739F3415041F0C901E3CF7D
:1055600082E0089583E0089581E0089584E008953D
:105570002091E80022FFDFCF80E008950E942C2BCD
:105580000E94342BE0EEF0E0808181608083E8EDC2
:10559000F0E080818F77808319BCA7EDB0E08C911B
:1055A0008E7F8C9380818F7E808310925602089527
:1055B0000F931F93CF93DF930E942C2B0E94342BC9
:1055C000C8EDD0E088818F77888388818068888360
:1055D00088818F7D888319BC1092570210925302E4
:1055E000109255021092540200EE10E0F8018081F2
:1055F0008B7F808388818160888342E060E080E0E7
:105600000E94382AE1EEF0E080818E7F8083E2EE16
:10561000F0E0808181608083808188608083F801F0
:1056200080818E7F8083888180618883DF91CF91A4
:105630001F910F910895E8EDF0E080818F7E8083C7
:10564000E7EDF0E080818160808384E082BF81E0CB
:10565000809356020C94D82AE8EDF0E080818E7F8A
:1056600080831092E20008951092DA001092E10017
:1056700008951F920F920FB60F9211242F933F930C
:105680004F935F936F937F938F939F93AF93BF934A
:10569000EF93FF938091E10082FF0BC08091E200C5
:1056A00082FF07C08091E1008B7F8093E1000E9420
:1056B0009D2D8091DA0080FF1FC08091D80080FF6F
:1056C0001BC08091DA008E7F8093DA008091D90030
:1056D00080FF0DC080E189BD82E189BD09B400FE73
:1056E000FDCF81E0809357020E94882705C019BC36
:1056F000109257020E9496278091E10080FF19C006
:105700008091E20080FF15C08091E2008E7F80933F
:10571000E2008091E20080618093E2008091D800F5
:1057200080628093D80019BC85E0809357020E9464
:105730009A278091E10084FF30C08091E20084FFCD
:105740002CC080E189BD82E189BD09B400FEFDCF96
:105750008091D8008F7D8093D8008091E1008F7E6A
:105760008093E1008091E2008F7E8093E20080913F
:10577000E20081608093E20080915302882311F05F
:1057800084E007C08091E30087FF02C083E001C08E
:1057900081E0809357020E949B278091E10083FF64
:1057A00029C08091E20083FF25C08091E100877FBE
:1057B0008093E10082E0809357021092530280911F
:1057C000E1008E7F8093E1008091E2008E7F8093E4
:1057D000E2008091E20080618093E20042E060E0BC
:1057E00080E00E94382A8091F00088608093F00069
:1057F0000E949927FF91EF91BF91AF919F918F9157
:105800007F916F915F914F913F912F910F900FBEBC
:105810000F901F9018951F920F920FB60F921124A0
:105820002F933F934F935F936F937F938F939F93A8
:10583000AF93BF93CF93EF93FF93C091E900CF70E5
:105840008091EC001092E9008091F000877F8093B6
:10585000F00078940E94472C1092E9008091F000AB
:1058600088608093F000C093E900FF91EF91CF91A1
:10587000BF91AF919F918F917F916F915F914F9168
:105880003F912F910F900FBE0F901F9018951F936F
:10589000CF93DF93CDB7DEB7AA970FB6F894DEBFEC
:1058A0000FBECDBFE8E5F2E08091F100819322E0E8
:1058B000E036F207C9F70E94B1278091E80083FF24
:1058C00024C12091580230915902832F90E08A30F0
:1058D000910508F01AC1FC01E556FF4F0C94F13018
:1058E000203821F0223809F010C108C080915402FC
:1058F00090915502992389F082600FC080915C02DB
:105900008F70873008F001C18093E9008091EB002F
:1059100085FB882780F91092E9009091E800977F35
:105920009093E8008093F1001092F100CCC0822F98
:105930008D7F09F0EAC0222319F0223061F0E5C022
:1059400080915A02813009F0E0C0333009F080E0E4
:10595000809355022AC080915A02811126C020915D
:105960005C022F708FEF820F863008F0CEC020933C
:10597000E9008091EB0080FF18C08091EB0033308C
:1059800011F4806210C080618093EB0081E090E0B0
:1059900001C0880F2A95EAF78093EA001092EA0086
:1059A0008091EB0088608093EB001092E900809179
:1059B000E800877F8093E8000E946D2AA6C021112D
:1059C000A4C010915A021F778091E3008078812B48
:1059D0008093E3008091E800877F8093E8000E9435
:1059E0006D2A8091E80080FFFCCF8091E300806801
:1059F0008093E300112311F083E001C082E08093E3
:105A0000570283C02058223008F07FC080915A028C
:105A100090915B028C3D23E0920779F583E08A83C5
:105A20008AE289834FB7F894DE01139620E03EE0C6
:105A300051E2E32FF0E050935700E49120FF03C0C0
:105A4000E295EF703F5FEF708E2F90E0EA3010F03C
:105A5000C79601C0C0968D939D932F5F243149F75F
:105A60004FBF8091E800877F8093E8006AE270E092
:105A7000CE0101960E94752915C060915C0270915B
:105A80005D02AE014F5F5F4F0E949D280097E9F1D4
:105A90002091E800277F2093E800BC0189819A814A
:105AA0000E94D6298091E8008B778093E8002DC072
:105AB000203859F58091E800877F8093E800809135
:105AC00053028093F1008091E8008E7773CF21110B
:105AD0001CC090915A029230C0F48091E800877FF8
:105AE0008093E800909353020E946D2A80915302A4
:105AF000811104C08091E30087FF02C084E001C0EF
:105B000081E0809357020E949D278091E80083FFE7
:105B10000AC08091E800877F8093E8008091EB00C5
:105B200080628093EB00AA960FB6F894DEBF0FBE9A
:105B3000CDBFDF91CF911F9108950895CF938091AC
:105B400057028823B1F08091E9008F709091EC00AA
:105B500090FF02C090E801C090E0C92FC82B1092BE
:105B6000E9008091E80083FD0E94472CCF70C0932C
:105B7000E900CF9108955058BB27AA270ED09EC1A7
:105B80008FD130F094D120F031F49F3F11F41EF406
:105B90005FC10EF4E095E7FB55C1E92FA0D180F37A
:105BA000BA17620773078407950718F071F49EF51A
:105BB000B8C10EF4E0950B2EBA2FA02D0B01B90140
:105BC00090010C01CA01A0011124FF27591B99F073
:105BD000593F50F4503E68F11A16F040A22F232F7F
:105BE000342F4427585FF3CF469537952795A795CF
:105BF000F0405395C9F77EF41F16BA0B620B730B76
:105C0000840BBAF09150A1F0FF0FBB1F661F771FE6
:105C1000881FC2F70EC0BA0F621F731F841F48F49B
:105C2000879577956795B795F7959E3F08F0B3CF21
:105C30009395880F08F09927EE0F9795879508950B
:105C40000CD03CC134D140F02BD130F021F45F3F77
:105C500019F0F8C0511166C1FBC041D198F39923E6
:105C6000C9F35523B1F3951B550BBB27AA27621720
:105C70007307840738F09F5F5F4F220F331F441F65
:105C8000AA1FA9F333D00E2E3AF0E0E830D091509D
:105C90005040E695001CCAF729D0FE2F27D0660F8A
:105CA000771F881FBB1F261737074807AB07B0E8C9
:105CB00009F0BB0B802DBF01FF2793585F4F2AF0DF
:105CC0009E3F510568F0BEC02DC15F3FECF3983E8A
:105CD000DCF3869577956795B795F7959F5FC9F73C
:105CE000880F911D9695879597F90895E1E0660FC5
:105CF000771F881FBB1F621773078407BA0720F03E
:105D0000621B730B840BBA0BEE1F88F7E0950895A6
:105D100019F40EF097C005C19BC0E9D0C8F39638BE
:105D2000C0F707F80F92E8942BE33AEA48EB5FE7F5
:105D30007DD10F920F920F924DB75EB70F9235D172
:105D4000EAE4F1E088D04F915F91EF91FF91E59502
:105D5000EE1FFF1F49F0FE57E0684427EE0F441F77
:105D6000FA95E1F74195550BECD00F9007FEE0C096
:105D70000895BDD088F09F5790F0B92F9927B7515B
:105D8000A0F0D1F0660F771F881F991F1AF0BA95FF
:105D9000C9F712C0B13081F0C4D0B1E00895C1C0DC
:105DA000672F782F8827B85F39F0B93FCCF38695F5
:105DB00077956795B395D9F73EF490958095709552
:105DC00061957F4F8F4F9F4F0895E89409C097FBCF
:105DD0003EF490958095709561957F4F8F4F9F4FC2
:105DE0009923A9F0F92F96E9BB279395F695879506
:105DF00077956795B795F111F8CFFAF4BB0F11F4C9
:105E000060FF1BC06F5F7F4F8F4F9F4F16C088236F
:105E100011F096E911C0772321F09EE8872F762FA5
:105E200005C0662371F096E8862F70E060E02AF0E6
:105E30009A95660F771F881FDAF7880F96958795D2
:105E400097F9089597F99F6780E870E060E00895FA
:105E50009FEF80EC0895DF93CF931F930F93FF92F2
:105E6000EF92DF927B018C01689405C0DA2EEF017E
:105E7000DBD0FE01E894A59125913591459155918E
:105E8000AEF3EF018ADEFE019701A801DA9479F7FB
:105E9000DF90EF90FF900F911F91CF91DF910895C8
:105EA00000240A94161617061806090608950024F9
:105EB0000A9412161306140605060895092E039473
:105EC000000C11F4882352F0BB0F40F4BF2B11F4E7
:105ED00060FF04C06F5F7F4F8F4F9F4F089557FD46
:105EE0009058440F551F59F05F3F71F04795880F48
:105EF00097FB991F61F09F3F79F0879508951216DF
:105F000013061406551FF2CF4695F1DF08C016168A
:105F100017061806991FF1CF86957105610508943B
:105F20000895E894BB2766277727CB0197F9089552
:105F30009B01AC0160E070E080E89FE381CE82CFFE
:105F4000D0C0D5DFE8F39923D9F3940F511DBBF3EB
:105F50009150504094F059F0882332F0660F771F2B
:105F6000881F91505040C1F79E3F510544F7880F5C
:105F7000911D9695879597F908955F3FACF0983EEF
:105F80009CF0BB27869577956795B79508F4B16027
:105F90009395C1F7BB0F58F711F460FFE8CF6F5F1F
:105FA0007F4F8F4F9F4FE3CFBDCFFA01DC01AA0F88
:105FB000BB1F9B01AC01BF5728F42227332744277E
:105FC00050781FC0B75188F4AB2F00244695379501
:105FD0002795011CA395D2F3002069F0220F331FEF
:105FE000441FB395DAF30DD0C6CD61307105A0E83A
:105FF0008A07B94630F49B01AC01662777278827CA
:106000009078309621F02083318342835383089522
:106010000BD054CF45DF28F04ADF18F0952309F064
:1060200011CF16CF11247ECF5ADFA0F3959FD1F365
:10603000950F50E0551F629FF001729FBB27F00D36
:10604000B11D639FAA27F00DB11DAA1F649F66278B
:10605000B00DA11D661F829F2227B00DA11D621FDA
:10606000739FB00DA11D621F839FA00D611D221F94
:10607000749F3327A00D611D231F849F600D211D78
:10608000822F762F6A2F11249F5750408AF0E1F01B
:1060900088234AF0EE0FFF1FBB1F661F771F881F64
:1060A00091505040A9F79E3F510570F0CBCE3ACFAA
:1060B0005F3FECF3983EDCF3869577956795B7954F
:1060C000F795E7959F5FC1F7FE2B880F911D969579
:1060D000879597F908959F9313D00F9007FCEE5F73
:1060E00036C09F3F31F0915020F4879577956795A2
:1060F000B795880F911D9695879597F90895A8CE25
:10610000F6DEE8F3E894E0E0BB279F57F0F02AEDD5
:106110003FE049EC06C0EE0FBB0F661F771F881FDC
:1061200028F0B23A62077307840728F0B25A620B6C
:10613000730B840BE3959A9572F7803830F49A9537
:10614000BB0F661F771F881FD2F79048CCCFEF9305
:10615000E0FF06C0A2EA2AED3FE049EC5FEB1DDD5F
:10616000ADDE0F90039401FC9058E2E7F1E000C02F
:106170009F938F937F936F93FF93EF939B01AC015A
:1061800047DFEF91FF9167DE2F913F914F915F9134
:106190003FCFAA1BBB1B51E107C0AA1FBB1FA617FD
:1061A000B70710F0A61BB70B881F991F5A95A9F7C0
:1061B00080959095BC01CD01089597FB072E16F4AC
:1061C000009407D077FD09D00E94C93007FC05D0A4
:1061D0003EF4909581959F4F0895709561957F4FFE
:1061E0000895EE0FFF1F0590F491E02D0994F999A1
:1061F000FECF92BD81BDF89A992780B50895A6E19A
:10620000B0E044E050E00C943131A8E1B0E042E06D
:1062100050E00C943131262FF999FECF92BD81BD0B
:10622000F89A019700B4021639F01FBA20BD0FB6D4
:10623000F894FA9AF99A0FBE08950396272F0E94B0
:106240000C310E940B31252F0E940C31242F0C940D
:106250000C310196272F0E940C310C940B31DC017C
:10626000CB01FC01F999FECF06C0F2BDE1BDF89A61
:10627000319600B40D9241505040B8F70895F8940B
:02628000FFCF4E
:106282000102DE012808140A321E96263427092745
:10629200D326992601F0F1C6676636943137353434
:1062A2009796333090919293950102030405060765
:1062B200080900404D3639690D1C0DE60CAD0C4045
:0862C2000C590C720C8B0C004E
:00000001FF
